:100000000C9462000C948A000C948A000C948A0070
:100010000C948A000C948A000C948A000C948A0038
:100020000C948A000C948A000C948A000C948A0028
:100030000C948A000C948A000C948A000C948A0018
:100040000C940A010C948A000C9423020C948A00EC
:100050000C948A000C948A000C948A000C948A00F8
:100060000C948A000C948A000000000024002700F1
:100070002A0000000000250028002B0000000000DE
:1000800023002600290004040404040404040202DA
:100090000202020203030303030301020408102007
:1000A0004080010204081020010204081020000012
:1000B0000007000201000003040600000000000029
:1000C0000000B40311241FBECFEFD8E0DEBFCDBFC8
:1000D00011E0A0E0B1E0E4EBF9E002C005900D9280
:1000E000A031B107D9F711E0A0E1B1E001C01D9244
:1000F000AE3BB107E1F710E0C4ECD0E004C02297BA
:10010000FE010E94D404C23CD107C9F70E9403013A
:100110000C94D8040C9400008BEA91E00E945903DF
:10012000882309F45EC08BEA91E00E946D039093EE
:100130001101809310010A9709F053C010921D011C
:1001400010921C0122C08BEA91E00E94590388237F
:10015000E1F08BEA91E00E946D039C019093110104
:10016000809310018A309105B1F08D30910599F09E
:1001700080911C0190911D01FC01EE5EFE4F2083D9
:10018000019690931D0180931C0180911C01909118
:100190001D010A97C4F280911C0190911D010A97DC
:1001A000B1F48BEA91E060E071E00E9425048BEAF3
:1001B00091E062E171E00E94440468E873E180E04C
:1001C00090E00E9452018BEA91E00E949503109208
:1001D0001D0110921C0164EF71E080E090E00E942C
:1001E000520108958BEA91E040E659E060E070E04A
:1001F0000E94600282E061E00E94B60182E060E05D
:100200000E94D60108950E947C010E94F2000E9483
:100210008C00FDCF1F920F920FB60F9211242F93D7
:100220003F938F939F93AF93BF93809122019091BF
:100230002301A0912401B09125013091260101965E
:10024000A11DB11D232F2D5F2D3720F02D570196B5
:10025000A11DB11D209326018093220190932301BB
:10026000A0932401B093250180911E0190911F015C
:10027000A0912001B09121010196A11DB11D809393
:100280001E0190931F01A0932001B0932101BF9103
:10029000AF919F918F913F912F910F900FBE0F9033
:1002A0001F901895EF92FF920F931F937B018C0183
:1002B0008FB7F8944091220150912301609124015D
:1002C000709125018FBF2FB7F894809122019091F2
:1002D0002301A0912401B09125012FBF841B950B10
:1002E000A60BB70BE816F9060A071B0760F71F9164
:1002F0000F91FF90EF900895789484B5826084BD4B
:1003000084B5816084BD85B5826085BD85B5816019
:1003100085BDEEE6F0E0808181608083E1E8F0E079
:10032000808182608083808181608083E0E8F0E06A
:10033000808181608083E1EBF0E080818460808354
:10034000E0EBF0E0808181608083EAE7F0E080818B
:1003500084608083808182608083808181608083EB
:100360008081806880831092C1000895282F30E03A
:10037000C90186569F4FFC0194912A573F4FF901BE
:100380008491882391F0E82FF0E0EE0FFF1FE859E9
:10039000FF4FA591B491662329F48C919095892300
:1003A0008C9308958C91892B8C930895482F50E05D
:1003B000CA0182559F4FFC012491CA0186569F4F66
:1003C000FC0194914A575F4FFA0134913323D1F1E4
:1003D000222331F1233021F4809180008F7705C0F2
:1003E000243031F4809180008F7D8093800018C08C
:1003F000213019F484B58F7704C0223021F484B5FC
:100400008F7D84BD0DC0263021F48091B0008F77A0
:1004100005C0273029F48091B0008F7D8093B00013
:10042000E32FF0E0EE0FFF1FEE58FF4FA591B491C0
:10043000662329F48C91909589238C9308958C914F
:10044000892B8C9308951F920F920FB60F9211244F
:100450002F933F934F935F936F937F938F939F93CC
:10046000AF93BF93EF93FF934091C600E091A70134
:10047000F091A801CF01019660E870E00E946E043F
:100480009C018091A9019091AA012817390739F0A0
:10049000E95DFE4F40833093A8012093A701FF91AF
:1004A000EF91BF91AF919F918F917F916F915F91EC
:1004B0004F913F912F910F900FBE0F901F90189565
:1004C0005F926F927F928F929F92AF92BF92CF92E4
:1004D000DF92EF92FF920F931F93CF93DF93EC0184
:1004E0003A014B01413482E458078FE0680780E00D
:1004F00078070CF07FC060E874E88EE190E0A4011A
:1005000093010E94A3042150304040405040CA0152
:10051000B90122E030E040E050E00E94A30459011C
:100520006A01A6019501209530954095509594E07B
:10053000220F331F441F551F9A95D1F760E074E2D4
:1005400084EF90E00E94A304CA01B9012FEF30E0CC
:1005500040E050E00E944F04A40193010E94A304D4
:10056000C90181509F4F181619061CF4522E5A9437
:1005700003C055245394521A60E079E08DE390E073
:10058000A40193010E94A3042150304040405040F8
:10059000CA01B90122E030E040E050E00E94A3042B
:1005A000209530954095509583E0220F331F441FCE
:1005B000551F8A95D1F760E074E284EF90E00E94C5
:1005C000A304CA01B9012FEF30E040E050E00E94DF
:1005D0004F04A40193010E94A304C90181509F4FBD
:1005E000181619061CF4822F815002C081E0821B6C
:1005F000851500F5E885F98581E090E00A8802C05C
:10060000880F991F0A94E2F7808360E079E08DE318
:1006100090E0A40193010E94A30421503040404087
:100620005040CA01B90122E030E040E050E00E94B1
:10063000A30404C0E885F98510829501EC81FD8151
:100640003083EE81FF812083EA85FB85208141E0B4
:1006500050E0CA010E8402C0880F991F0A94E2F785
:10066000282B2083EA85FB852081CA010F8402C0E4
:10067000880F991F0A94E2F7282B2083EA85FB85CF
:100680008081088802C0440F551F0A94E2F7842B2A
:100690008083DF91CF911F910F91FF90EF90DF90BA
:1006A000CF90BF90AF909F908F907F906F905F9012
:1006B0000895DC011296ED91FC911397E058FF4FDD
:1006C0008191919180589F4F20813181821B930BA2
:1006D00060E870E00E946E040895CF93DF93DC0120
:1006E0001296ED91FC911397EF01CE57DF4F4881A1
:1006F0005981E058FF4F80819181E058F040841784
:10070000950719F42FEF3FEF0CC0E40FF51F208180
:10071000CA01019660E870E00E946E0499838883A4
:1007200030E0C901DF91CF910895DC011296ED917F
:10073000FC911397EE57FF4F8081918192938293A2
:100740000895FC01A085B18521898C9190E0022E4D
:1007500002C0959587950A94E2F780FFF6CF04844E
:10076000F585E02D608308958AE091E09093AC01D7
:100770008093AB0187E291E09093AE018093AD014D
:1007800085EC90E09093B0018093AF0184EC90E011
:100790009093B2018093B10180EC90E09093B4010A
:1007A0008093B30181EC90E09093B6018093B50102
:1007B00086EC90E09093B8018093B70184E0809339
:1007C000B90183E08093BA0187E08093BB0185E0A3
:1007D0008093BC0181E08093BD0108950F931F9326
:1007E000CF93DF938C01EB0109C02196D801ED91E5
:1007F000FC910190F081E02DC80109956881662384
:10080000A1F7DF91CF911F910F910895EF92FF9281
:100810000F931F93CF93DF938C017B01EA010CC0F0
:10082000D7016D917D01D801ED91FC910190F0818E
:10083000E02DC80109952197209791F7DF91CF917D
:100840001F910F91FF90EF900895DC01ED91FC91C5
:100850000280F381E02D099508950F931F938C0179
:10086000DC01ED91FC910190F081E02D6DE00995A6
:10087000D801ED91FC910190F081E02DC8016AE072
:1008800009951F910F9108950F931F938C010E945A
:100890002504C8010E942D041F910F910895629FA5
:1008A000D001739FF001829FE00DF11D649FE00D68
:1008B000F11D929FF00D839FF00D749FF00D659FC9
:1008C000F00D9927729FB00DE11DF91F639FB00DC8
:1008D000E11DF91FBD01CF011124089597FB092ED9
:1008E00007260AD077FD04D049D006D000201AF49C
:1008F000709561957F4F0895F6F7909581959F4F7C
:100900000895A1E21A2EAA1BBB1BFD010DC0AA1F50
:10091000BB1FEE1FFF1FA217B307E407F50720F068
:10092000A21BB30BE40BF50B661F771F881F991FE3
:100930001A9469F760957095809590959B01AC012C
:10094000BD01CF01089597FB092E05260ED057FD56
:1009500004D0D7DF0AD0001C38F45095409530956C
:1009600021953F4F4F4F5F4F0895F6F79095809533
:10097000709561957F4F8F4F9F4F0895AA1BBB1BAA
:1009800051E107C0AA1FBB1FA617B70710F0A61B8F
:10099000B70B881F991F5A95A9F780959095BC01B0
:1009A000CD010895EE0FFF1F0590F491E02D0994FD
:0409B000F894FFCFE9
:1009B400636F64653A0000000000A103EE030604BF
:00000001FF
